:100000000C944A010C947B010C947B010C947B01B1
:100010000C947B010C947B010C947B010C947B0170
:100020000C947B010C947B010C947B010C947B0160
:100030000C947B010C947B010C947B010C947B0150
:100040000C947B010C947B010C947B010C947B0140
:100050000C947B010C947B010C947B010C94D405D3
:100060000C947B010C943F0A0C942F0B0C947B0195
:100070000C947B010C947B010C947B010C947B0110
:100080000C947B010C947B010C947B010C947B0100
:100090000C94730A0C946E0B0C947B010C947B01F2
:1000A0000C947B010C947B010C947B010C947B01E0
:1000B0000C947B010C947B010C947B010C947B01D0
:1000C0000C947B010C947B010C947B010C94A70A8B
:1000D0000C94AD0B0C947B010C94DB0A0C94EC0B90
:1000E0000C947B01EA06ED06E006E4062407F1061F
:1000F000F506FB06FF06030709070D07110724078E
:1001000017071B071F070C9417070C9411070C9473
:10011000BD090C94A4090C9494090C94FB060C944E
:10012000FF060C940E0B0C941F070C9424070C94E0
:10013000DD090C94E20D0C94B5040C9409070C94A1
:100140000D070C941B070C94AC0C0C94EA060C9451
:10015000F1060C94ED060C94F5060C94BB040C947B
:10016000E8090C94E4060C94E0060C9403070000E4
:10017000090A02080B0C0D07060304010000000029
:10018000000000000000000000000000000000006F
:100190000000000000000000000011100F0000002F
:1001A000000000000000000000000000000000004F
:1001B000000000000102102020080810204010203C
:1001C000408002010201080402010102040810201B
:1001D0004080804020100804020180040201804019
:1001E0002010080402010804020101020408102082
:1001F0004080010204081020408005050505070520
:1002000008080808020202020A0A08080404040492
:1002100001010101010101010303030303030303BE
:10022000040707070C0C0C0C0C0C0C0C020202024D
:1002300006060606060606060B0B0B0B0B0B0B0B36
:10024000000020002300260029002C002F0032008F
:100250000001000003010601090100002200250041
:1002600028002B002E00310034000201000005019F
:1002700008010B0100002100240027002A002D00A6
:100280003000330001010000040107010A01B50438
:10029000AC0CBB0411241FBECFEFD1E2DEBFCDBF3B
:1002A00000E00CBF13E0A0E0B2E0E8EFF3E200E012
:1002B0000BBF02C007900D92A43BB107D9F727E00E
:1002C000A4EBB3E001C01D92AE33B207E1F712E038
:1002D000C2E9D2E000E006C022970109FE010BBF8F
:1002E0000E949111CE38D10780E00807A9F70E943B
:1002F00087090C94EA110C940000FC0183E0EE0FD6
:10030000FF1F8A95E1F7EC54FC4F828193818F3F68
:100310002FEF920719F48681978108950C94940722
:10032000EF92FF920F931F93CF93DF937C010E9474
:100330007D01870123E0000F111F2A95E1F7E801F5
:10034000CC54DC4F21E030E0281B390B3F832E8357
:1003500064E172E086ED94E00E94550E4AE050E0C0
:10036000B70186ED94E00E94390F6FE072E086EDF0
:1003700094E00E94550E6E817F814AE050E086ED48
:1003800094E00E94410F8D81882359F060E272E071
:1003900086ED94E00E94840E6E8188810E945E0743
:1003A00027C08C81882389F060E088810E945E07E5
:1003B00064E670E080E090E00E944D0661E0888194
:1003C0000E945E076FE372E00FC088810E9494076D
:1003D00061E0892B09F060E0F801EC54FC4F80816A
:1003E0000E945E076CE572E086ED94E00E94840E48
:1003F0006EE672E086ED94E00E94550EE801CC5462
:10040000DC4F6E817F814AE050E086ED94E00E94EF
:10041000410F67E872E086ED94E00E94550E8A81F4
:100420000E9494074AE050E0BC0186ED94E00E94EF
:10043000410F6CE972E086ED94E00E94550E8881D0
:100440000E9494074AE050E0BC0186ED94E0DF9101
:10045000CF911F910F91FF90EF900C94410F0F934C
:100460001F93CF93DF93EC018B016CEA72E088EF6E
:1004700094E00E94550ECA30D10534F46EEA72E061
:1004800088EF94E00E94550E4AE050E0BE0188EFEC
:1004900094E00E94390F4AE050E0B80188EF94E000
:1004A0000E94410F60EB72E086ED94E0DF91CF9106
:1004B0001F910F910C94840EEF92FF920F931F9354
:1004C000CF93DF930EEB13E0C1E0D0E080917C048A
:1004D00090917D04C817D9070CF04EC0CE010E9440
:1004E0007D017C01F801848195818E159F0509F4B9
:1004F0003FC06BEB72E086ED94E00E94550E4AE03F
:1005000050E0BE0186ED94E00E94410F63ED72E081
:1005100086ED94E00E94550EF801648175814AE0F1
:1005200050E086ED94E00E94390F63EE72E086EDB4
:1005300094E00E94550EF801608171814AE050E01C
:1005400086ED94E00E94390F6FED72E086ED94E045
:100550000E94550E4AE050E0B70186ED94E00E94FB
:10056000410FF801F582E482B701CE010E942F020B
:100570002196085F1F4FAACFDF91CF911F910F9156
:10058000FF90EF900895CF93DF93EC0167EF72E057
:1005900086ED94E00E94550E4AE050E0BE0186EDE3
:1005A00094E00E94390F67E073E086ED94E00E94CA
:1005B000840E6EE073E086ED94E00E94550E33E009
:1005C000CC0FDD1F3A95E1F7CC54DC4F688179817F
:1005D0004AE050E086ED94E00E94390F64E173E058
:1005E00086ED94E00E94550E6A817B814AE050E0DE
:1005F00086ED94E00E94390F6EE173E086ED94E0A1
:100600000E94550E6C8170E04AE050E086ED94E067
:100610000E94390F68E273E086ED94E00E94550E67
:100620006D8170E04AE050E086ED94E00E94390F61
:100630006EE273E086ED94E00E94550E6E817F813C
:100640004AE050E086ED94E0DF91CF910C94410FA9
:10065000CF92DF92EF92FF920F931F93CF93DF938E
:10066000CDB7DEB728970FB6F894DEBF0FBECDBF6B
:1006700067E373E086ED94E00E94550E62E874E053
:1006800086ED94E00E94720E21E030E040E050E000
:1006900062E874E0CE0101960E9437096AE473E0D3
:1006A000CE0101960E940709182FCE0101960E94E3
:1006B00013081123A1F123E030E041E050E062E8AB
:1006C00074E0CE0101960E943709CE0101960E9486
:1006D0007C09062FCE0101960E94130824E030E029
:1006E00043E050E062E874E0CE0101960E943709D1
:1006F000CE0101960E947C09CE01019668870E9476
:10070000130810E0C8010E947D01688570E0681739
:10071000790709F41BC1C8010E94900117C121E0AB
:1007200030E040E050E062E874E0CE0101960E94C3
:1007300037096CE473E0CE0101960E940709182F77
:10074000CE0101960E941308112339F061E070E098
:1007500084E090E00E942F02F9C023E030E040E006
:1007600050E062E874E0CE0101960E9437096EE421
:1007700073E0CE0101960E940709182FCE01019661
:100780000E941308112309F4B4C025E030E043E0CF
:1007900050E062E874E0CE0101960E943709CE0174
:1007A00001960E947C096B017C01CE0101960E949A
:1007B000130827E030E045E050E062E874E0CE0145
:1007C00001960E943709CE0101960E947C0943E000
:1007D000CC0CDD1C4A95E1F786010C541C4FF80146
:1007E00071836083CE0101960E94130829E030E0F6
:1007F00047E050E062E874E0CE0101960E943709BC
:10080000CE0101960E947C09F80173836283CE01B8
:1008100001960E9413082BE030E049E050E062E8C6
:1008200074E0CE0101960E943709CE0101960E9424
:100830007C0921E0672B682B692B09F420E0F80183
:100840002583CE0101960E9413082DE030E04BE095
:1008500050E062E874E0CE0101960E943709CE01B3
:1008600001960E947C09F601EC54FC4F21E0672BB5
:10087000682B692B09F420E02483CE0101960E94A5
:10088000130886010C541C4F61E0F80180810E941E
:10089000250761E0F80180810E945E0760E0F801B1
:1008A00082810E9425072FE030E04DE050E062E8B1
:1008B00074E0CE0101960E943709CE0101960E9494
:1008C0007C09F80177836683CE0101960E941308A4
:1008D000F8018581882311F0668107C0F8018481C1
:1008E000811134C061E08681681B80810E945E07AF
:1008F0002DC021E030E040E050E062E874E0CE013D
:1009000001960E94370962E573E0CE0101960E94CC
:100910000709182FCE0101960E9413081123B1F088
:1009200023E030E041E050E062E874E0CE0101965F
:100930000E943709CE0101960E947C0970937D04C4
:1009400060937C04CE0101960E94130828960FB68E
:10095000F894DEBF0FBECDBFDF91CF911F910F91F5
:10096000FF90EF90DF90CF90089562EE72E082E802
:1009700094E00C94810882E894E00C941308CF93DF
:10098000DF93CDB7DEB727970FB6F894DEBF0FBE63
:10099000CDBF88EF94E00E94940918161906A4F4BC
:1009A0004AE368EF74E0CE0101960E94EB07BE01B6
:1009B0006F5F7F4F82E894E00E949808CE01019615
:1009C0000E94130881E001C080E027960FB6F894DA
:1009D000DEBF0FBECDBFDF91CF9108951F93CF93A0
:1009E000DF93CDB7DEB727970FB6F894DEBF0FBE03
:1009F000CDBF40E052EC61E070E088EF94E00E94EF
:100A00002B0C40E052EC61E070E086ED94E00E9437
:100A10002B0C64E573E086ED94E00E94840E60E6A2
:100A200073E088EF94E00E94840E62E673E086ED46
:100A300094E00E94840E0E94BF0421E030E040E078
:100A400050E062E874E0CE0101960E94370962E549
:100A500073E0CE0101960E940709182FCE0101967E
:100A60000E94130811110BC00E94BF048111E5CF31
:100A700061E070E080E090E00E944D06F5CF66E80E
:100A800073E086ED94E00E94550E23E030E041E0F3
:100A900050E062E874E0CE0101960E943709CE0171
:100AA00001960E947C0970937D0460937C04CE01C2
:100AB00001960E94130823E030E040E050E062E835
:100AC00074E0CE0101960E94370969E973E0CE0116
:100AD00001960E940709182FCE0101960E94130863
:100AE00011110DC00E94BF04882329F30E9428031E
:100AF00069EB72E086ED94E00E94550EF3CF6DE94C
:100B000073E086ED94E00E94840E27960FB6F89469
:100B1000DEBF0FBECDBFDF91CF911F9108950F9320
:100B20001F930E94BF0481110E94280386ED94E068
:100B30000E949409181619069CF401E010E08091B7
:100B40007C0490917D040817190734F4C8010E94B1
:100B5000C3020F5F1F4FF3CF86ED94E00E94BD09E3
:100B60000E941E0600917E0410917F042091800453
:100B700030918104601B710B820B930B693E7340B3
:100B80008105910570F00E941E0660937E047093AB
:100B90007F0480938004909381041F910F910C94A3
:100BA0005C021F910F9108951F920F920FB60F9242
:100BB00011242F933F938F939F93AF93BF93809173
:100BC0008A0490918B04A0918C04B0918D04309193
:100BD000890423E0230F2D3720F40196A11DB11DB8
:100BE00005C026E8230F0296A11DB11D209389049C
:100BF00080938A0490938B04A0938C04B0938D040B
:100C000080918E0490918F04A0919004B0919104F2
:100C10000196A11DB11D80938E0490938F04A09323
:100C20009004B0939104BF91AF919F918F913F91A8
:100C30002F910F900FBE0F901F9018952FB7F8941B
:100C400060918A0470918B0480918C0490918D0442
:100C50002FBF08953FB7F89480918E0490918F0430
:100C6000A0919004B091910426B5A89B05C02F3F98
:100C700019F00196A11DB11D3FBF6627782F892F5E
:100C80009A2F620F711D811D911D42E0660F771F23
:100C9000881F991F4A95D1F70895CF92DF92EF925E
:100CA000FF92CF93DF936B017C010E942A06EB0138
:100CB000C114D104E104F10479F00E942A066C1BEE
:100CC0007D0B683E7340A0F381E0C81AD108E108AB
:100CD000F108C851DC4FECCFDF91CF91FF90EF903E
:100CE000DF90CF900895789484B5826084BD84B5F8
:100CF000816084BD85B5826085BD85B5816085BD17
:100D0000EEE6F0E0808181608083E1E8F0E010822F
:100D1000808182608083808181608083E0E8F0E070
:100D2000808181608083E1EBF0E08081846080835A
:100D3000E0EBF0E0808181608083E1E9F0E0808198
:100D400082608083808181608083E0E9F0E080813F
:100D500081608083E1EAF0E080818260808380812D
:100D600081608083E0EAF0E0808181608083E1E25D
:100D7000F1E0808182608083808181608083E0E215
:100D8000F1E0808181608083EAE7F0E08081846027
:100D90008083808182608083808181608083808184
:100DA000806880831092C100089590E0FC01319723
:100DB000E131F10508F048C0EE58FF4F0C948B115B
:100DC000809180008F7703C0809180008F7D809319
:100DD0008000089584B58F7702C084B58F7D84BD6F
:100DE00008958091B0008F7703C08091B0008F7D0F
:100DF0008093B0000895809190008F7707C0809114
:100E000090008F7D03C080919000877F8093900039
:100E100008958091A0008F7707C08091A0008F7DFA
:100E200003C08091A000877F8093A00008958091E7
:100E300020018F7707C0809120018F7D03C08091B2
:100E40002001877F809320010895CF93DF9390E066
:100E5000FC01EC54FE4F2491FC01E650FE4F8491BE
:100E6000882349F190E0880F991FFC01EC58FD4F51
:100E7000A591B491865A9D4FFC01C591D4919FB71D
:100E8000611108C0F8948C91209582238C938881FD
:100E900082230AC0623051F4F8948C91322F30953D
:100EA00083238C938881822B888304C0F8948C914F
:100EB000822B8C939FBFDF91CF9108950F931F9347
:100EC000CF93DF931F92CDB7DEB7282F30E0F90123
:100ED000E259FE4F8491F901EC54FE4F1491F9014F
:100EE000E650FE4F04910023C9F0882321F0698366
:100EF0000E94D5066981E02FF0E0EE0FFF1FE65A51
:100F0000FD4FA591B4919FB7F8948C91611103C0E6
:100F10001095812301C0812B8C939FBF0F90DF918F
:100F2000CF911F910F910895CF93DF93282F30E039
:100F3000F901E259FE4F8491F901EC54FE4FD4912E
:100F4000F901E650FE4FC491CC2391F081110E942B
:100F5000D506EC2FF0E0EE0FFF1FE05CFD4FA591F2
:100F6000B4912C912D2381E090E021F480E002C027
:100F700080E090E0DF91CF9108950F931F93CF937E
:100F8000DF93EC010E941E06688779878A879B871A
:100F9000E881F9810680F781E02DCE01199597FF50
:100FA00015C00E941E06088519852A853B85601B91
:100FB000710B820B930B0C811D812E813F81601779
:100FC00071078207930720F38FEF9FEFDF91CF9197
:100FD0001F910F910895EF92FF920F931F93CF935C
:100FE000DF93EC018B01E42E62EE72E00E94810837
:100FF000C8010E94BD07FF24E7FCF09497FD0BC0D9
:101000008E159F0541F0682FCE010E94F308C8019C
:101010000E94BD07F3CFCE01DF91CF911F910F91B9
:10102000FF90EF900895FC01808191810C94DA107B
:10103000CF93DF93EC0188819981009711F00E9492
:10104000DA10198218821D821C821B821A82DF919B
:10105000CF9108950F931F93CF93DF93EC018B01F2
:101060006F5F7F4F888199810E94590F009731F0FF
:10107000998388831B830A8381E001C080E0DF912C
:10108000CF911F910F910895CF93DF93EC01888149
:101090009981892B29F08A819B818617970760F4B3
:1010A000CE010E942A08882341F08C819D81892BE2
:1010B00019F4E881F981108281E0DF91CF910895E0
:1010C000EF92FF920F931F93CF93DF93EC017B017D
:1010D0008A01BA010E944408811104C0CE010E9415
:1010E000180807C01D830C83B701888199810E946D
:1010F000CE11CE01DF91CF911F910F91FF90EF9014
:101100000895FC01118210821382128215821482CA
:1011100016826115710559F0FB0101900020E9F775
:10112000AF0141505109461B570B0C9460080895BC
:10113000CF93DF93EC01FB018617970761F0608185
:1011400071816115710529F0448155810E94600803
:1011500002C00E941808CE01DF91CF910895CF936D
:10116000DF93EC016115710561F0FB010190002036
:10117000E9F7AF0141505109461B570B0E94600827
:1011800002C00E941808CE01DF91CF910895EF921E
:10119000FF920F931F93CF93DF93EC017B010C81A0
:1011A0001D816115710511F480E016C041155105CE
:1011B00091F0040F151FB8010E9444088823A1F381
:1011C000288139818C819D81B701820F931F0E94F4
:1011D000CE111D830C8381E0DF91CF911F910F9180
:1011E000FF90EF900895CF93DF931F921F92CDB79A
:1011F000DEB769831A8241E050E0BE016F5F7F4F26
:101200000E94C7080F900F90DF91CF910895FC01C5
:1012100024813581232B31F421E061157105A1F082
:10122000FB0108C0FC01808191816115710531F4D9
:1012300021E0FC018081882339F005C00E94C5119E
:1012400021E0892B09F020E0822F0895FC01248100
:1012500035816217730748F480819181009729F0E6
:10126000FC01E60FF71F8081089580E00895BF928A
:10127000CF92DF92EF92FF920F931F93CF93DF9362
:101280006C017B01EA0189012417350720F48D2FB9
:10129000E901042F182F62EE72E0C6010E94810856
:1012A000D70114968D919C9115978C179D07C8F0C6
:1012B0008017910708F48C01D701ED91FC911197EB
:1012C000E00FF11FB08010826D917C916C0F7D1F3B
:1012D000C6010E94AF08D701ED91FC91E00FF11F0C
:1012E000B082C601DF91CF911F910F91FF90EF90D7
:1012F000DF90CF90BF900895FC018081918100978D
:1013000011F00C94951160E070E0CB0108950E94FB
:1013100073060E94EE04CEE0DBE00E948F0520976A
:10132000E1F30E940E0BF9CFFC0124853585F9010C
:10133000E05CFF4F80819181329620813181821B58
:10134000930B8F7399270895FC0184859585FC0183
:10135000E05CFF4F408151813296208131814217FC
:10136000530741F00190F081E02DE80FF91F8081D3
:1013700090E008958FEF9FEF0895FC018485958597
:10138000FC01E05CFF4F4081518132962081318128
:101390004217530779F0A081B181A80FB91F8C9132
:1013A000208131812F5F3F4F2F733327318320837B
:1013B00090E008958FEF9FEF0895FC0181A18823AD
:1013C00029F0A489B5898C9186FFFBCF11A20895DD
:1013D000CF93DF93FC0126853785D901A05CBF4FF1
:1013E0008D919C91119701968F739927E901CE5B9E
:1013F000DF4F4881598184179507D9F30D90BC912F
:10140000A02DA20FB31F6C93A685B785A05CBF4F1C
:1014100011969C938E93A689B7892C9181E090E0D8
:10142000078C02C0880F991F0A94E2F7282B2C938F
:1014300081E081A30488F589E02D80818064808328
:1014400081E090E0DF91CF910895FB01E05CFF4FD8
:10145000208131812F5F3F4F2F733327DB01AE5B3C
:10146000BF4F4D915C912417350739F0A081B181B0
:10147000A60FB71F8C9331832083089508951F9280
:101480000F920FB60F9211240BB60F922F933F932A
:101490004F935F936F937F938F939F93AF93BF937C
:1014A000EF93FF938091C00082FD07C08091C6003A
:1014B00066EF76E00E94250A02C08091C600FF9187
:1014C000EF91BF91AF919F918F917F916F915F91BC
:1014D0004F913F912F910F900BBE0F900FBE0F9029
:1014E0001F90189508951F920F920FB60F92112416
:1014F0000BB60F922F933F934F935F936F937F930E
:101500008F939F93AF93BF93EF93FF938091C80006
:1015100082FD07C08091CE006EE676E00E94250A2B
:1015200002C08091CE00FF91EF91BF91AF919F914A
:101530008F917F916F915F914F913F912F910F907C
:101540000BBE0F900FBE0F901F90189508951F921D
:101550000F920FB60F9211240BB60F922F933F9359
:101560004F935F936F937F938F939F93AF93BF93AB
:10157000EF93FF938091D00082FD07C08091D60049
:1015800066EE75E00E94250A02C08091D600FF91A8
:10159000EF91BF91AF919F918F917F916F915F91EB
:1015A0004F913F912F910F900BBE0F900FBE0F9058
:1015B0001F90189508951F920F920FB60F92112445
:1015C0000BB60F922F933F934F935F936F937F933D
:1015D0008F939F93AF93BF93EF93FF9380913001CD
:1015E00082FD07C0809136016EE575E00E94250AF4
:1015F00002C080913601FF91EF91BF91AF919F9111
:101600008F917F916F915F914F913F912F910F90AB
:101610000BBE0F900FBE0F901F90189588EF94E0AF
:101620000E949409892B11F00E943E0A86ED94E0F5
:101630000E949409892B11F00E94720A84EB94E0B5
:101640000E949409892B11F00E94A60A82E994E075
:101650000E949409892B11F00C94DA0A08951F92C4
:101660000F920FB60F9211240BB60F922F933F9348
:101670008F939F93EF93FF932091F2063091F3069F
:101680008091F4069091F5062817390731F480917E
:10169000C1008F7D8093C10014C0E091F406F091E9
:1016A000F506EE54F94F20818091F4069091F506ED
:1016B00001968F7399279093F5068093F4062093F3
:1016C000C600FF91EF919F918F913F912F910F90C5
:1016D0000BBE0F900FBE0F901F9018951F920F9288
:1016E0000FB60F9211240BB60F922F933F938F9347
:1016F0009F93EF93FF9320916A0630916B06809140
:101700006C0690916D062817390731F48091C90055
:101710008F7D8093C90014C0E0916C06F0916D0636
:10172000E65DF94F208180916C0690916D060196DF
:101730008F73992790936D0680936C062093CE004B
:10174000FF91EF919F918F913F912F910F900BBE41
:101750000F900FBE0F901F9018951F920F920FB60B
:101760000F9211240BB60F922F933F938F939F9359
:10177000EF93FF932091E2053091E3058091E4051A
:101780009091E5052817390731F48091D1008F7DBC
:101790008093D10014C0E091E405F091E505EE5589
:1017A000FA4F20818091E4059091E50501968F73B1
:1017B00099279093E5058093E4052093D600FF9147
:1017C000EF919F918F913F912F910F900BBE0F90B2
:1017D0000FBE0F901F9018951F920F920FB60F9289
:1017E00011240BB60F922F933F938F939F93EF93F8
:1017F000FF9320915A0530915B0580915C05909193
:101800005D052817390731F4809131018F7D809370
:10181000310114C0E0915C05F0915D05E65EFA4F80
:10182000208180915C0590915D0501968F739927C9
:1018300090935D0580935C0520933601FF91EF91B5
:101840009F918F913F912F910F900BBE0F900FBEE4
:101850000F901F901895CF92DF92EF92FF92CF9347
:10186000DF93EC016A017B01411581EE58076105A8
:101870007105F9F0EC89FD8981E090E008A002C0D3
:10188000880F991F0A94E2F7808360E079E08DE386
:1018900090E0A70196010E94691121503109410988
:1018A00051095695479537952795211580E13807B9
:1018B00098F0EC89FD89108260E874E88EE190E090
:1018C000A70196010E94691121503109410951096E
:1018D0005695479537952795E889F9893083EA89A0
:1018E000FB89208319A2EE89FF89408181E090E085
:1018F0009C010C8C02C0220F331F0A94E2F7422B8A
:101900004083EE89FF8940819C010D8C02C0220F2B
:10191000331F0A94E2F7422B4083EE89FF8940810E
:101920009C010E8C02C0220F331F0A94E2F7422B57
:101930004083EE89FF8920810F8C02C0880F991F98
:101940000A94E2F7809582238083DF91CF91FF9004
:10195000EF90DF90CF900895CF931092FB041092F8
:10196000FA0488EE93E0A0E0B0E08093FC0490934A
:10197000FD04A093FE04B093FF0427EA33E0309304
:10198000F9042093F80446EF56E050930505409380
:10199000040542EB56E0509307054093060545ECDD
:1019A00050E0509309054093080544EC50E05093F3
:1019B0000B0540930A0540EC50E050930D05409311
:1019C0000C0541EC50E050930F0540930E0542EC9E
:1019D00050E0509311054093100546EC50E05093B1
:1019E000130540931205C4E0C0931405F3E0F0938F
:1019F0001505E7E0E093160575E07093170561E0C3
:101A0000609318051092D9041092D8048093DA04D8
:101A10009093DB04A093DC04B093DD043093D704EF
:101A20002093D6044EE656E05093E3044093E2043C
:101A30004AE256E05093E5044093E4044DEC50E054
:101A40005093E7044093E6044CEC50E05093E904D3
:101A50004093E80448EC50E05093EB044093EA04D0
:101A600049EC50E05093ED044093EC044AEC50E014
:101A70005093EF044093EE044EEC50E05093F10489
:101A80004093F004C093F204F093F304E093F40461
:101A90007093F5046093F6041092B7041092B604A4
:101AA0008093B8049093B904A093BA04B093BB0494
:101AB0003093B5042093B40446EE55E05093C1042E
:101AC0004093C00442EA55E05093C3044093C204DB
:101AD00045ED50E05093C5044093C40444ED50E0FC
:101AE0005093C7044093C60440ED50E05093C9049E
:101AF0004093C80441ED50E05093CB044093CA0496
:101B000042ED50E05093CD044093CC0446ED50E0BC
:101B10005093CF044093CE04C093D004F093D104EB
:101B2000E093D2047093D3046093D404109295048C
:101B3000109294048093960490939704A093980431
:101B4000B093990430939304209392048EE595E02A
:101B500090939F0480939E048AE195E09093A10462
:101B60008093A00485E391E09093A3048093A20462
:101B700084E391E09093A5048093A40480E391E032
:101B80009093A7048093A60481E391E09093A90425
:101B90008093A80482E391E09093AB048093AA041D
:101BA00086E391E09093AD048093AC04C093AE04BF
:101BB000F093AF04E093B0047093B1046093B20467
:101BC000CF910895CF92DF92EF92FF920F931F93E0
:101BD000CF93DF936C017A01EB01E60EF71E00E074
:101BE00010E0CE15DF0561F06991D601ED91FC9111
:101BF0000190F081E02DC6011995080F191FF1CF52
:101C0000C801DF91CF911F910F91FF90EF90DF906E
:101C1000CF9008956115710581F0DB010D900020D2
:101C2000E9F7AD0141505109461B570BDC01ED911D
:101C3000FC910280F381E02D199480E090E00895FA
:101C4000AF92BF92CF92DF92EF92FF920F931F93CA
:101C5000CF93DF937C016B01C0E0D0E000E010E0A7
:101C6000D60114968D919C911597C817D90788F4C1
:101C7000D701ED91FC91A080B180BE01C6010E9408
:101C80002609682FC701F5011995080F191F21961C
:101C9000E7CFC801DF91CF911F910F91FF90EF9097
:101CA000DF90CF90BF90AF9008950C940A0EDC01A6
:101CB000ED91FC910190F081E02D19940F931F9309
:101CC000CF93DF93EC016DE00E94570E8C016AE028
:101CD000CE010E94570E800F911FDF91CF911F916F
:101CE0000F9108950F931F93CF93DF93EC010E9400
:101CF000200E8C01CE010E945E0E800F911FDF919D
:101D0000CF911F910F9108950F931F93CF93DF935E
:101D1000EC010E940A0E8C01CE010E945E0E800F23
:101D2000911FDF91CF911F910F9108958F929F92F4
:101D3000AF92BF92CF92DF92EF92FF920F931F93D9
:101D4000CF93DF93CDB7DEB7A1970FB6F894DEBF80
:101D50000FBECDBF7C01C42EE52FCB01D22E19A220
:101D600021E02D1510F02AE0D22E8E010F5D1F4FBD
:101D70008D2C912CA12CB12C6C2D7E2FA5019401C2
:101D80000E9469118C2DD29E8019112401501109D5
:101D90008A3014F4805D01C0895CF80180832115CC
:101DA00031054105510521F0C22EE32FCA01E4CFD0
:101DB000B801C7010E940A0EA1960FB6F894DEBFC3
:101DC0000FBECDBFDF91CF911F910F91FF90EF908C
:101DD000DF90CF90BF90AF909F908F900895CF925B
:101DE000DF92EF92FF920F931F93CF93DF93EC015B
:101DF0006A017B012115310579F4E881F9810190AF
:101E0000F081E02D642FDF91CF911F910F91FF9012
:101E1000EF90DF90CF9019942A303105E9F477FFE5
:101E20001AC06DE20E94570E8C0144275527BA0153
:101E30004C195D096E097F092AE0CE010E94960EB9
:101E4000800F911FDF91CF911F910F91FF90EF9025
:101E5000DF90CF9008952AE0B701A601CE01DF916F
:101E6000CF911F910F91FF90EF90DF90CF900C9446
:101E7000960E9A01AB01662757FD6095762F0C945C
:101E8000EF0E0F931F93CF93DF93EC019A01AB01F9
:101E9000662757FD6095762F0E94EF0E8C01CE01CC
:101EA0000E945E0E800F911FDF91CF911F910F91C5
:101EB00008956F927F928F929F92AF92BF92CF922E
:101EC000DF92EF92FF920F931F93CF93DF93EC017A
:101ED000CB01209781F4DF91CF911F910F91FF905B
:101EE000EF90DF90CF90BF90AF909F908F907F90BA
:101EF0006F900C944210FE01E60FF71F9E012250D6
:101F00003109E217F30708F4ACC0D9010D911C9117
:101F1000119706171707B8F00530110508F49FC090
:101F2000A801445051094617570708F498C00250B9
:101F30001109061B170B019311936D937C93CF012D
:101F40000E94DA108CC05B01A01AB10A4E01800E0B
:101F5000911EA0913C07B0913D07612C712C60E06F
:101F600070E0109709F449C0A815B905C9F5ED90BE
:101F7000FC901197670142E0C40ED11CCA14DB0427
:101F800078F147018A189B08640142E0C40ED11C15
:101F90001296BC9012971396AC91B5E0CB16D10473
:101FA00040F0B282A38391828082D9018D939C9369
:101FB00009C00E5F1F4F0E0D1F1DF9011183008315
:101FC000EB2DFA2F6115710531F0DB011396FC93AF
:101FD000EE93129744C0F0933D07E0933C073FC057
:101FE0006D917C9111976616770608F43B01BD014F
:101FF00012960D90BC91A02DB4CF60913A077091CC
:102000003B0768157905E9F468167906D0F4409124
:102010000002509101024115510541F44DB75EB7E0
:102020006091040270910502461B570BE417F507F7
:10203000C0F4F0933B07E0933A07F9019183808362
:102040000EC00E9442107C01009759F0A801BE0109
:102050000E94BC11CE010E94DA10C70104C0CE015B
:1020600002C080E090E0DF91CF911F910F91FF902F
:10207000EF90DF90CF90BF90AF909F908F907F9028
:102080006F900895CF93DF938230910510F482E032
:1020900090E0E0913C07F0913D0720E030E0A0E0C7
:1020A000B0E0309739F14081518148175907B8F0B5
:1020B0004817590771F482819381109729F013967C
:1020C0009C938E9312972CC090933D0780933C076E
:1020D00027C02115310531F04217530718F0A90127
:1020E000DB0101C0EF019A01BD01DF010280F38134
:1020F000E02DD7CF21153105F9F0281B390B2430FD
:10210000310580F48A819B816115710521F0FB0105
:102110009383828304C090933D0780933C07FE0124
:10212000329644C0FE01E20FF31F81939193225037
:102130003109398328833AC020913A0730913B070F
:10214000232B41F4209102023091030230933B078C
:1021500020933A07209100023091010221153105A8
:1021600041F42DB73EB74091040250910502241B63
:10217000350BE0913A07F0913B07E217F307A0F423
:102180002E1B3F0B2817390778F0AC014E5F5F4FCD
:102190002417350748F04E0F5F1F50933B074093BD
:1021A0003A078193919302C0E0E0F0E0CF01DF9124
:1021B000CF910895CF93DF93009709F487C0FC0176
:1021C000329713821282C0913C07D0913D0720972D
:1021D00081F420813181280F391F80913A07909135
:1021E0003B078217930779F5F0933B07E0933A0793
:1021F0006DC0DE0120E030E0AE17BF0750F412964C
:102200004D915C9113979D014115510509F1DA013A
:10221000F3CFB383A28340815181840F951F8A1726
:102220009B0771F48D919C911197840F951F0296D5
:102230009183808312968D919C91139793838283CF
:102240002115310529F4F0933D07E0933C073EC08A
:10225000D9011396FC93EE9312974D915D91A40FC3
:10226000B51FEA17FB0779F480819181840F951FD0
:102270000296D90111969C938E9382819381139635
:102280009C938E931297E0E0F0E08A819B81009707
:1022900019F0FE01EC01F9CFCE01029628813981B7
:1022A000820F931F20913A0730913B072817390777
:1022B00069F4309729F410923D0710923C0702C050
:1022C00013821282D0933B07C0933A07DF91CF91DC
:1022D0000895A1E21A2EAA1BBB1BFD010DC0AA1F67
:1022E000BB1FEE1FFF1FA217B307E407F50720F07F
:1022F000A21BB30BE40BF50B661F771F881F991FFA
:102300001A9469F760957095809590959B01AC0142
:10231000BD01CF010895EE0FFF1F0590F491E02D50
:1023200019940790F691E02D19941F93FC019927B9
:102330008827BC01E89411911032E9F3193010F0AC
:102340001E30C8F31B3251F01D3249F4689406C0A8
:102350000E94D511610F711D811D911D11911053A6
:102360001A30B0F33EF490958095709561957F4F4B
:102370008F4F9F4F1F910895FB01DC0102C0019018
:102380000D9241505040D8F70895FB01DC018D912A
:10239000019080190110D9F3990B0895FB01DC011C
:1023A00001900D920020E1F70895592F482F372F03
:1023B000262F660F771F881F991F660F771F881FAC
:1023C000991F620F731F841F951F660F771F881F49
:1023D000991F089512E0C2E9D2E000E006C02297FA
:1023E0000109FE010BBF0E949111C439D10780E0A1
:0823F0000807A9F7F894FFCFDC
:1023F80000003E07800053657474696E67200020F2
:1024080061732000546F67676C696E67203A20001B
:102418002F2F2F2F2F204E4F524D414C5920434CD8
:102428004F534544202D2D2D205052495345002F00
:102438002F2F2F2F2050554C534544202D2D2D2024
:1024480054454C4552555054455552002F2F2F2F67
:102458002F205641204554205649454E54004E657C
:102468007720737461746520746F67676C65642086
:102478006F6D6667203A004C6576656C206F6E203C
:1024880070696E70696E6261636B20004C65766579
:102498006C206F6E2072656C6179200063003000DB
:1024A80053656E64696E67202E2E00436F6D7061F0
:1024B800726520737461746573206F662064657635
:1024C800203A0041637475616C20737461746520EF
:1024D8003A2000207374617465207265616420611C
:1024E800742070696E20002D2D2D2D2D2D2D2D443D
:1024F800657669636520002D2D2D2D2D2D005069E1
:102508006E203A002050696E6F7574203A00205092
:10251800756C736564203A00204E43203A002053BE
:1025280074617465203A0052656365697665642054
:1025380066726F6D207069203A00720074006D61D8
:102548006A006E005374617274696E672E2E2E00D5
:102558007A005761697420666F7220646174612023
:10256800746F20626520696E697469616C6973654E
:1025780064202E2E2E004461746120696E6F636D95
:102588006D696E67202E2E2E00656E6400446F6E96
:10259800652E0000000000E809E20D9409BD09A4B9
:0425A80009DD090040
:00000001FF
