:100000000C9426010C943A010C943A010C943A0198
:100010000C943A010C943A010C943A010C943A0174
:100020000C943A010C943A010C943A010C943A0164
:100030000C943A010C943A010C943A010C943A0154
:100040000C943A010C943A010C943A010C943A0144
:100050000C943A010C943A010C943A010C948801E6
:100060000C943A010C943A010C943A010C943A0124
:100070000C943A010C943A010C943A010C943A0114
:100080000C943A010C943A010C943A010C943A0104
:100090000C943A010C943A010C943A010C943A01F4
:1000A0000C943A010C943A010C943A010C943A01E4
:1000B0000C943A010C943A010C943A010C943A01D4
:1000C0000C943A010C943A010C943A010C943A01C4
:1000D0000C943A010C943A010C943A010C943A01B4
:1000E0000C943A01550258024B024F028F025C02F7
:1000F000600266026A026E02740278027C028F025B
:10010000820286028A020C9482020C9478020C9479
:100110008A020C945C020C9474020C9460020C949D
:100120006A020C9466020C944B020C947C020C94B0
:100130008F020C9486020C9455020C944F020C947E
:100140006E020C9458020000090A02080B0C0D07FD
:100150000603040100000000000000000000000091
:10016000000000000000000000000000000000008F
:10017000000011100F00000000000000000000004F
:10018000000000000000000000000000010210203C
:1001900020080810204010204080020102010804BD
:1001A0000201010204081020408080402010080451
:1001B00002018004020180402010080402010804AA
:1001C00002010102040810204080010204081020EE
:1001D0004080050505050705080808080202020217
:1001E0000A0A0808040404040101010101010101D3
:1001F0000303030303030303040707070C0C0C0C9E
:100200000C0C0C0C02020202060606060606060686
:100210000B0B0B0B0B0B0B0B000022002500280017
:100220002B002E00310034000201000005010801FE
:100230000B0100002100240027002A002D003000BF
:10024000330001010000040107010A0111241FBE4F
:10025000CFEFD1E2DEBFCDBF00E00CBF22E0A0E0D7
:10026000B2E001C01D92AF30B207E1F70E94FF0279
:100270000C9412030C94000061E08DE00C94900249
:10028000CF92DF92EF92FF920F931F930E94D201C1
:1002900000910002109101022091020230910302AC
:1002A0006B017C01C01AD10AE20AF30A48EEC416B7
:1002B00043E0D406E104F10420F16093000270935E
:1002C00001028093020290930302809104029091B4
:1002D0000502892B39F481E090E090930502809328
:1002E000040204C0109205021092040260910402FC
:1002F0008DE01F910F91FF90EF90DF90CF900C94C5
:10030000C9021F910F91FF90EF90DF90CF90089559
:100310001F920F920FB60F9211242F933F938F933A
:100320009F93AF93BF938091070290910802A09191
:100330000902B0910A023091060223E0230F2D3703
:1003400020F40196A11DB11D05C026E8230F0296D9
:10035000A11DB11D2093060280930702909308020D
:10036000A0930902B0930A0280910B0290910C02B3
:10037000A0910D02B0910E020196A11DB11D8093B6
:100380000B0290930C02A0930D02B0930E02BF914A
:10039000AF919F918F913F912F910F900FBE0F9032
:1003A0001F9018952FB7F89460910702709108027A
:1003B0008091090290910A022FBF0895789484B524
:1003C000826084BD84B5816084BD85B5826085BD51
:1003D00085B5816085BDEEE6F0E080818160808337
:1003E000E1E8F0E01082808182608083808181601A
:1003F0008083E0E8F0E0808181608083E1EBF0E0E1
:10040000808184608083E0EBF0E080818160808384
:10041000E1E9F0E080818260808380818160808377
:10042000E0E9F0E0808181608083E1EAF0E08081B2
:1004300082608083808181608083E0EAF0E0808157
:1004400081608083E1E2F1E080818260808380814D
:1004500081608083E0E2F1E0808181608083EAE76F
:10046000F0E08081846080838081826080838081ED
:10047000816080838081806880831092C1000895AC
:1004800090E0FC013197E131F10508F048C0EE58E9
:10049000FF4F0C940C03809180008F7703C08091F4
:1004A00080008F7D80938000089584B58F7702C08F
:1004B00084B58F7D84BD08958091B0008F7703C08F
:1004C0008091B0008F7D8093B0000895809190005E
:1004D0008F7707C0809190008F7D03C0809190003E
:1004E000877F8093900008958091A0008F7707C048
:1004F0008091A0008F7D03C08091A000877F8093B2
:10050000A0000895809120018F7707C0809120017D
:100510008F7D03C080912001877F80932001089503
:10052000CF93DF9390E0FC01E457FE4F2491FC0150
:10053000EE52FE4F8491882349F190E0880F991F75
:10054000FC01EE5CFD4FA591B491885E9D4FFC01CE
:10055000C591D4919FB7611108C0F8948C912095F2
:1005600082238C93888182230AC0623051F4F894EC
:100570008C91322F309583238C938881822B8883B2
:1005800004C0F8948C91822B8C939FBFDF91CF9104
:1005900008950F931F93CF93DF931F92CDB7DEB7CC
:1005A000282F30E0F901EA5BFE4F8491F901E4570E
:1005B000FE4F1491F901EE52FE4F04910023C9F051
:1005C000882321F069830E9440026981E02FF0E0D6
:1005D000EE0FFF1FE85EFD4FA591B4919FB7F89411
:1005E0008C91611103C01095812301C0812B8C93E4
:1005F0009FBF0F90DF91CF911F910F9108950E949F
:10060000DE010E943C01C0E0D0E00E944001209742
:10061000E1F30E940000F9CFEE0FFF1F0590F49167
:08062000E02D1994F894FFCFBE
:00000001FF
